{
    "contractName": "EnergyTrade",
    "abi": [
        {
            "inputs": [
                {
                    "internalType": "contract IERC20",
                    "name": "token",
                    "type": "address"
                }
            ],
            "stateMutability": "nonpayable",
            "type": "constructor"
        },
        {
            "anonymous": false,
            "inputs": [
                {
                    "indexed": false,
                    "internalType": "address",
                    "name": "from",
                    "type": "address"
                }
            ],
            "name": "DoneStuff",
            "type": "event"
        },
        {
            "inputs": [],
            "name": "doStuff",
            "outputs": [],
            "stateMutability": "nonpayable",
            "type": "function"
        },
        {
            "inputs": [],
            "name": "info",
            "outputs": [
                {
                    "internalType": "uint256",
                    "name": "",
                    "type": "uint256"
                }
            ],
            "stateMutability": "view",
            "type": "function"
        },
        {
            "inputs": [],
            "name": "owner",
            "outputs": [
                {
                    "internalType": "address",
                    "name": "",
                    "type": "address"
                }
            ],
            "stateMutability": "view",
            "type": "function"
        },
        {
            "inputs": [
                {
                    "internalType": "address",
                    "name": "endereco",
                    "type": "address"
                }
            ],
            "name": "pagarProsumerOwner",
            "outputs": [],
            "stateMutability": "nonpayable",
            "type": "function"
        },
        {
            "inputs": [
                {
                    "internalType": "uint256",
                    "name": "",
                    "type": "uint256"
                }
            ],
            "name": "prosumer",
            "outputs": [
                {
                    "internalType": "address",
                    "name": "",
                    "type": "address"
                }
            ],
            "stateMutability": "view",
            "type": "function"
        },
        {
            "inputs": [],
            "name": "prosumerCount",
            "outputs": [
                {
                    "internalType": "uint256",
                    "name": "",
                    "type": "uint256"
                }
            ],
            "stateMutability": "view",
            "type": "function"
        },
        {
            "inputs": [
                {
                    "internalType": "address",
                    "name": "endereco",
                    "type": "address"
                },
                {
                    "internalType": "uint256",
                    "name": "value",
                    "type": "uint256"
                }
            ],
            "name": "setAdmin",
            "outputs": [],
            "stateMutability": "nonpayable",
            "type": "function"
        },
        {
            "inputs": [
                {
                    "internalType": "address",
                    "name": "endereco",
                    "type": "address"
                },
                {
                    "internalType": "uint8",
                    "name": "unidadeConsumidora",
                    "type": "uint8"
                },
                {
                    "internalType": "uint8",
                    "name": "consumida",
                    "type": "uint8"
                },
                {
                    "internalType": "uint8",
                    "name": "injetada",
                    "type": "uint8"
                }
            ],
            "name": "setProsumer",
            "outputs": [],
            "stateMutability": "nonpayable",
            "type": "function"
        }
    ],
    "bytecode": "60806040526207a1206040516100149061009a565b908152602001604051809103906000f080158015610036573d6000803e3d6000fd5b50600080546001600160a01b0319166001600160a01b039290921691909117905534801561006357600080fd5b50604051610f11380380610f11833981016040819052610082916100a7565b50600180546001600160a01b031916331790556100d7565b610666806108ab83390190565b6000602082840312156100b957600080fd5b81516001600160a01b03811681146100d057600080fd5b9392505050565b6107c5806100e66000396000f3fe608060405234801561001057600080fd5b50600436106100885760003560e01c80638da5cb5b1161005b5780638da5cb5b146100ce5780639ef9424a146100f9578063d991ea5e1461010c578063e71a09331461011f57600080fd5b806319c155b31461008d578063370158ea146100a95780634ff6428b146100b1578063874f33a1146100c6575b600080fd5b61009660035481565b6040519081526020015b60405180910390f35b610096610132565b6100c46100bf36600461060c565b6101af565b005b6100c461025f565b6001546100e1906001600160a01b031681565b6040516001600160a01b0390911681526020016100a0565b6100c4610107366004610647565b61031d565b6100c461011a36600461069b565b61049a565b6100e161012d3660046106bd565b6105c6565b60008060009054906101000a90046001600160a01b03166001600160a01b03166318160ddd6040518163ffffffff1660e01b8152600401602060405180830381865afa158015610186573d6000803e3d6000fd5b505050506040513d601f19601f820116820180604052508101906101aa91906106d6565b905090565b6001546001600160a01b031633146101e25760405162461bcd60e51b81526004016101d9906106ef565b60405180910390fd5b60005460405163095ea7b360e01b81526001600160a01b038481166004830152602482018490529091169063095ea7b3906044015b6020604051808303816000875af1158015610236573d6000803e3d6000fd5b505050506040513d601f19601f8201168201806040525081019061025a919061071c565b505050565b6000546040516323b872dd60e01b81523360048201819052306024830152620186a06044830152916001600160a01b0316906323b872dd906064016020604051808303816000875af11580156102b9573d6000803e3d6000fd5b505050506040513d601f19601f820116820180604052508101906102dd919061071c565b506040516001600160a01b03821681527ffb55d69a924eb175f134fb8cbb875beb7c22325179dac4eee4af2bd5de6a2ec39060200160405180910390a150565b6001546001600160a01b031633146103475760405162461bcd60e51b81526004016101d9906106ef565b6001600160a01b03841660009081526004602052604090205461ffff1660ff841614610448576040805160608101825260ff808616825284811660208084019182529185168385019081526001600160a01b03891660008181526004909452948320845181549351925161ffff9081166401000000000265ffff0000000019948216620100000263ffffffff1990961692909116919091179390931791909116919091179055600280546001810182559082527f405787fa12a823e0f2b7631cc41b3ba8828b3321ca811111fa75cd3aa3bb5ace0180546001600160a01b03191690931790925560038054919261043d83610754565b919050555050610494565b6001600160a01b0384166000908152600460205260409020805460ff85811663ffffffff199092169190911784821662010000021765ffff000000001916908316640100000000021790555b50505050565b6001546001600160a01b031633146104c45760405162461bcd60e51b81526004016101d9906106ef565b6001600160a01b03811660009081526004602052604090205461ffff6201000082048116640100000000909204161161054e5760405162461bcd60e51b815260206004820152602660248201527f456e657267696120636f6e73756d696461206d61696f7220717565206120696e6044820152656a657461646160d01b60648201526084016101d9565b6001600160a01b0381166000908152600460205260408120546105859061ffff62010000820481169164010000000090041661076d565b60005460405163a9059cbb60e01b81526001600160a01b03858116600483015261ffff9390931660248201819052935091169063a9059cbb90604401610217565b600281815481106105d657600080fd5b6000918252602090912001546001600160a01b0316905081565b80356001600160a01b038116811461060757600080fd5b919050565b6000806040838503121561061f57600080fd5b610628836105f0565b946020939093013593505050565b803560ff8116811461060757600080fd5b6000806000806080858703121561065d57600080fd5b610666856105f0565b935061067460208601610636565b925061068260408601610636565b915061069060608601610636565b905092959194509250565b6000602082840312156106ad57600080fd5b6106b6826105f0565b9392505050565b6000602082840312156106cf57600080fd5b5035919050565b6000602082840312156106e857600080fd5b5051919050565b60208082526013908201527252656d6574656e746520696e76616c69646f2160681b604082015260600190565b60006020828403121561072e57600080fd5b815180151581146106b657600080fd5b634e487b7160e01b600052601160045260246000fd5b6000600182016107665761076661073e565b5060010190565b61ffff8281168282160390808211156107885761078861073e565b509291505056fea2646970667358221220c209aae31e44c2c56634b37107432ac6546fc9d50791765d49de45c26a99e10964736f6c63430008110033608060405234801561001057600080fd5b5060405161066638038061066683398101604081905261002f91610046565b60008181553381526002602052604090205561005f565b60006020828403121561005857600080fd5b5051919050565b6105f88061006e6000396000f3fe608060405234801561001057600080fd5b50600436106100935760003560e01c8063313ce56711610066578063313ce5671461012957806370a082311461014357806395d89b411461016c578063a9059cbb1461018e578063dd62ed3e146101a157600080fd5b806306fdde0314610098578063095ea7b3146100e157806318160ddd1461010457806323b872dd14610116575b600080fd5b6100cb604051806040016040528060148152602001732932b732bbb0b13632a2b732b933bcaa37b5b2b760611b81525081565b6040516100d89190610461565b60405180910390f35b6100f46100ef3660046104cb565b6101da565b60405190151581526020016100d8565b6000545b6040519081526020016100d8565b6100f46101243660046104f5565b61024c565b610131600281565b60405160ff90911681526020016100d8565b610108610151366004610531565b6001600160a01b031660009081526002602052604090205490565b6100cb6040518060400160405280600381526020016214915560ea1b81525081565b6100f461019c3660046104cb565b610350565b6101086101af366004610553565b6001600160a01b03918216600090815260036020908152604080832093909416825291909152205490565b3360008181526003602090815260408083206001600160a01b0387168085529083528184208690558151948552918401919091528201839052907f8c5be1e5ebec7d5bd14f71427d1e84f3dd0314c0f7b2291e5b200ac8c7c3b925906060015b60405180910390a15060015b92915050565b6001600160a01b03831660009081526002602052604081205461027090839061059c565b6001600160a01b03851660009081526002602090815260408083209390935560038152828220338352905220546102a890839061059c565b6001600160a01b0380861660009081526003602090815260408083203384528252808320949094559186168152600290915220546102e79083906105af565b6001600160a01b038481166000818152600260209081526040918290209490945580519288168352928201529081018390527fddf252ad1be2c89b69c2b068fc378daa952ba7f163c4a11628f55a4df523b3ef9060600160405180910390a15060019392505050565b336000908152600260205260408120548211156103be5760405162461bcd60e51b815260206004820152602260248201527f53616c646f20696e737566696369656e74652070617261207472616e7366657260448201526134b960f11b606482015260840160405180910390fd5b336000908152600260205260409020546103d990839061059c565b33600090815260026020526040808220929092556001600160a01b038516815220546104069083906105af565b6001600160a01b0384166000818152600260209081526040918290209390935580513381529283019190915281018390527fddf252ad1be2c89b69c2b068fc378daa952ba7f163c4a11628f55a4df523b3ef9060600161023a565b600060208083528351808285015260005b8181101561048e57858101830151858201604001528201610472565b506000604082860101526040601f19601f8301168501019250505092915050565b80356001600160a01b03811681146104c657600080fd5b919050565b600080604083850312156104de57600080fd5b6104e7836104af565b946020939093013593505050565b60008060006060848603121561050a57600080fd5b610513846104af565b9250610521602085016104af565b9150604084013590509250925092565b60006020828403121561054357600080fd5b61054c826104af565b9392505050565b6000806040838503121561056657600080fd5b61056f836104af565b915061057d602084016104af565b90509250929050565b634e487b7160e01b600052601160045260246000fd5b8181038181111561024657610246610586565b808201808211156102465761024661058656fea2646970667358221220446efb16c5b3346083360322b191c58f691cca8d7d70c93e4a5280cba5a8c68264736f6c63430008110033",
    "sourcePath": "c:/Users/Cpides/Documents/Angular dApp/Blockchain/contracts/EnergyTrade.sol",
    "compiler": {
        "name": "solc",
        "version": "0.8.17+commit.8df45f5f"
    },
    "functionHashes": {
        "doStuff()": "874f33a1",
        "info()": "370158ea",
        "owner()": "8da5cb5b",
        "pagarProsumerOwner(address)": "d991ea5e",
        "prosumer(uint256)": "e71a0933",
        "prosumerCount()": "19c155b3",
        "setAdmin(address,uint256)": "4ff6428b",
        "setProsumer(address,uint8,uint8,uint8)": "9ef9424a"
    },
    "gasEstimates": {
        "creation": {
            "codeDepositCost": "397800",
            "executionCost": "infinite",
            "totalCost": "infinite"
        },
        "external": {
            "doStuff()": "infinite",
            "info()": "infinite",
            "owner()": "2337",
            "pagarProsumerOwner(address)": "infinite",
            "prosumer(uint256)": "4680",
            "prosumerCount()": "2285",
            "setAdmin(address,uint256)": "infinite",
            "setProsumer(address,uint8,uint8,uint8)": "infinite"
        }
    }
}