{
  "contractName": "EnergyTrade",
  "abi": [
    {
      "inputs": [
        {
          "internalType": "contract IERC20",
          "name": "token",
          "type": "address"
        }
      ],
      "stateMutability": "nonpayable",
      "type": "constructor"
    },
    {
      "anonymous": false,
      "inputs": [
        {
          "indexed": false,
          "internalType": "address",
          "name": "from",
          "type": "address"
        }
      ],
      "name": "DoneStuff",
      "type": "event"
    },
    {
      "inputs": [],
      "name": "owner",
      "outputs": [
        {
          "internalType": "address",
          "name": "",
          "type": "address"
        }
      ],
      "stateMutability": "view",
      "type": "function"
    },
    {
      "inputs": [
        {
          "internalType": "uint256",
          "name": "",
          "type": "uint256"
        }
      ],
      "name": "prosumer",
      "outputs": [
        {
          "internalType": "address",
          "name": "",
          "type": "address"
        }
      ],
      "stateMutability": "view",
      "type": "function"
    },
    {
      "inputs": [],
      "name": "prosumerCount",
      "outputs": [
        {
          "internalType": "uint256",
          "name": "",
          "type": "uint256"
        }
      ],
      "stateMutability": "view",
      "type": "function"
    },
    {
      "inputs": [],
      "name": "doStuff",
      "outputs": [],
      "stateMutability": "nonpayable",
      "type": "function"
    },
    {
      "inputs": [
        {
          "internalType": "address",
          "name": "endereco",
          "type": "address"
        },
        {
          "internalType": "uint8",
          "name": "unidadeConsumidora",
          "type": "uint8"
        },
        {
          "internalType": "uint8",
          "name": "consumida",
          "type": "uint8"
        },
        {
          "internalType": "uint8",
          "name": "injetada",
          "type": "uint8"
        }
      ],
      "name": "setProsumer",
      "outputs": [],
      "stateMutability": "nonpayable",
      "type": "function"
    },
    {
      "inputs": [
        {
          "internalType": "address",
          "name": "endereco",
          "type": "address"
        },
        {
          "internalType": "uint256",
          "name": "value",
          "type": "uint256"
        }
      ],
      "name": "setAdmin",
      "outputs": [],
      "stateMutability": "nonpayable",
      "type": "function"
    },
    {
      "inputs": [
        {
          "internalType": "address",
          "name": "endereco",
          "type": "address"
        }
      ],
      "name": "pagarProsumerOwner",
      "outputs": [],
      "stateMutability": "nonpayable",
      "type": "function"
    },
    {
      "inputs": [],
      "name": "info",
      "outputs": [
        {
          "internalType": "uint256",
          "name": "",
          "type": "uint256"
        }
      ],
      "stateMutability": "view",
      "type": "function"
    }
  ],
  "bytecode": "0x60806040523480156200001157600080fd5b50604051620011c5380380620011c583398181016040528101906200003791906200013d565b33600160006101000a81548173ffffffffffffffffffffffffffffffffffffffff021916908373ffffffffffffffffffffffffffffffffffffffff160217905550806000806101000a81548173ffffffffffffffffffffffffffffffffffffffff021916908373ffffffffffffffffffffffffffffffffffffffff160217905550506200016f565b600080fd5b600073ffffffffffffffffffffffffffffffffffffffff82169050919050565b6000620000f182620000c4565b9050919050565b60006200010582620000e4565b9050919050565b6200011781620000f8565b81146200012357600080fd5b50565b60008151905062000137816200010c565b92915050565b600060208284031215620001565762000155620000bf565b5b6000620001668482850162000126565b91505092915050565b611046806200017f6000396000f3fe608060405234801561001057600080fd5b50600436106100885760003560e01c80638da5cb5b1161005b5780638da5cb5b146100ef5780639ef9424a1461010d578063d991ea5e14610129578063e71a09331461014557610088565b806319c155b31461008d578063370158ea146100ab5780634ff6428b146100c9578063874f33a1146100e5575b600080fd5b610095610175565b6040516100a29190610aec565b60405180910390f35b6100b361017b565b6040516100c09190610aec565b60405180910390f35b6100e360048036038101906100de9190610b96565b610212565b005b6100ed610345565b005b6100f7610427565b6040516101049190610be5565b60405180910390f35b61012760048036038101906101229190610c39565b61044d565b005b610143600480360381019061013e9190610ca0565b6107c3565b005b61015f600480360381019061015a9190610ccd565b610a94565b60405161016c9190610be5565b60405180910390f35b60035481565b60008060009054906101000a900473ffffffffffffffffffffffffffffffffffffffff1673ffffffffffffffffffffffffffffffffffffffff166318160ddd6040518163ffffffff1660e01b8152600401602060405180830381865afa1580156101e9573d6000803e3d6000fd5b505050506040513d601f19601f8201168201806040525081019061020d9190610d0f565b905090565b600160009054906101000a900473ffffffffffffffffffffffffffffffffffffffff1673ffffffffffffffffffffffffffffffffffffffff163373ffffffffffffffffffffffffffffffffffffffff16146102a2576040517f08c379a000000000000000000000000000000000000000000000000000000000815260040161029990610d99565b60405180910390fd5b60008054906101000a900473ffffffffffffffffffffffffffffffffffffffff1673ffffffffffffffffffffffffffffffffffffffff1663095ea7b383836040518363ffffffff1660e01b81526004016102fd929190610db9565b6020604051808303816000875af115801561031c573d6000803e3d6000fd5b505050506040513d601f19601f820116820180604052508101906103409190610e1a565b505050565b600033905060008054906101000a900473ffffffffffffffffffffffffffffffffffffffff1673ffffffffffffffffffffffffffffffffffffffff166323b872dd82306103e86040518463ffffffff1660e01b81526004016103a993929190610e8c565b6020604051808303816000875af11580156103c8573d6000803e3d6000fd5b505050506040513d601f19601f820116820180604052508101906103ec9190610e1a565b507ffb55d69a924eb175f134fb8cbb875beb7c22325179dac4eee4af2bd5de6a2ec38160405161041c9190610be5565b60405180910390a150565b600160009054906101000a900473ffffffffffffffffffffffffffffffffffffffff1681565b600160009054906101000a900473ffffffffffffffffffffffffffffffffffffffff1673ffffffffffffffffffffffffffffffffffffffff163373ffffffffffffffffffffffffffffffffffffffff16146104dd576040517f08c379a00000000000000000000000000000000000000000000000000000000081526004016104d490610d99565b60405180910390fd5b8260ff16600460008673ffffffffffffffffffffffffffffffffffffffff1673ffffffffffffffffffffffffffffffffffffffff16815260200190815260200160002060000160009054906101000a900461ffff1661ffff161461069c57600060405180606001604052808560ff1661ffff1681526020018460ff1661ffff1681526020018360ff1661ffff16815250905080600460008773ffffffffffffffffffffffffffffffffffffffff1673ffffffffffffffffffffffffffffffffffffffff16815260200190815260200160002060008201518160000160006101000a81548161ffff021916908361ffff16021790555060208201518160000160026101000a81548161ffff021916908361ffff16021790555060408201518160000160046101000a81548161ffff021916908361ffff1602179055509050506002859080600181540180825580915050600190039060005260206000200160009091909190916101000a81548173ffffffffffffffffffffffffffffffffffffffff021916908373ffffffffffffffffffffffffffffffffffffffff1602179055506003600081548092919061069190610ef2565b9190505550506107bd565b8260ff16600460008673ffffffffffffffffffffffffffffffffffffffff1673ffffffffffffffffffffffffffffffffffffffff16815260200190815260200160002060000160006101000a81548161ffff021916908361ffff1602179055508160ff16600460008673ffffffffffffffffffffffffffffffffffffffff1673ffffffffffffffffffffffffffffffffffffffff16815260200190815260200160002060000160026101000a81548161ffff021916908361ffff1602179055508060ff16600460008673ffffffffffffffffffffffffffffffffffffffff1673ffffffffffffffffffffffffffffffffffffffff16815260200190815260200160002060000160046101000a81548161ffff021916908361ffff1602179055505b50505050565b600160009054906101000a900473ffffffffffffffffffffffffffffffffffffffff1673ffffffffffffffffffffffffffffffffffffffff163373ffffffffffffffffffffffffffffffffffffffff1614610853576040517f08c379a000000000000000000000000000000000000000000000000000000000815260040161084a90610d99565b60405180910390fd5b600460008273ffffffffffffffffffffffffffffffffffffffff1673ffffffffffffffffffffffffffffffffffffffff16815260200190815260200160002060000160029054906101000a900461ffff1661ffff16600460008373ffffffffffffffffffffffffffffffffffffffff1673ffffffffffffffffffffffffffffffffffffffff16815260200190815260200160002060000160049054906101000a900461ffff1661ffff161161093d576040517f08c379a000000000000000000000000000000000000000000000000000000000815260040161093490610fac565b60405180910390fd5b6000600460008373ffffffffffffffffffffffffffffffffffffffff1673ffffffffffffffffffffffffffffffffffffffff16815260200190815260200160002060000160029054906101000a900461ffff16600460008473ffffffffffffffffffffffffffffffffffffffff1673ffffffffffffffffffffffffffffffffffffffff16815260200190815260200160002060000160049054906101000a900461ffff166109eb9190610fda565b61ffff16905060008054906101000a900473ffffffffffffffffffffffffffffffffffffffff1673ffffffffffffffffffffffffffffffffffffffff1663a9059cbb83836040518363ffffffff1660e01b8152600401610a4c929190610db9565b6020604051808303816000875af1158015610a6b573d6000803e3d6000fd5b505050506040513d601f19601f82011682018060405250810190610a8f9190610e1a565b505050565b60028181548110610aa457600080fd5b906000526020600020016000915054906101000a900473ffffffffffffffffffffffffffffffffffffffff1681565b6000819050919050565b610ae681610ad3565b82525050565b6000602082019050610b016000830184610add565b92915050565b600080fd5b600073ffffffffffffffffffffffffffffffffffffffff82169050919050565b6000610b3782610b0c565b9050919050565b610b4781610b2c565b8114610b5257600080fd5b50565b600081359050610b6481610b3e565b92915050565b610b7381610ad3565b8114610b7e57600080fd5b50565b600081359050610b9081610b6a565b92915050565b60008060408385031215610bad57610bac610b07565b5b6000610bbb85828601610b55565b9250506020610bcc85828601610b81565b9150509250929050565b610bdf81610b2c565b82525050565b6000602082019050610bfa6000830184610bd6565b92915050565b600060ff82169050919050565b610c1681610c00565b8114610c2157600080fd5b50565b600081359050610c3381610c0d565b92915050565b60008060008060808587031215610c5357610c52610b07565b5b6000610c6187828801610b55565b9450506020610c7287828801610c24565b9350506040610c8387828801610c24565b9250506060610c9487828801610c24565b91505092959194509250565b600060208284031215610cb657610cb5610b07565b5b6000610cc484828501610b55565b91505092915050565b600060208284031215610ce357610ce2610b07565b5b6000610cf184828501610b81565b91505092915050565b600081519050610d0981610b6a565b92915050565b600060208284031215610d2557610d24610b07565b5b6000610d3384828501610cfa565b91505092915050565b600082825260208201905092915050565b7f52656d6574656e746520696e76616c69646f2100000000000000000000000000600082015250565b6000610d83601383610d3c565b9150610d8e82610d4d565b602082019050919050565b60006020820190508181036000830152610db281610d76565b9050919050565b6000604082019050610dce6000830185610bd6565b610ddb6020830184610add565b9392505050565b60008115159050919050565b610df781610de2565b8114610e0257600080fd5b50565b600081519050610e1481610dee565b92915050565b600060208284031215610e3057610e2f610b07565b5b6000610e3e84828501610e05565b91505092915050565b6000819050919050565b6000819050919050565b6000610e76610e71610e6c84610e47565b610e51565b610ad3565b9050919050565b610e8681610e5b565b82525050565b6000606082019050610ea16000830186610bd6565b610eae6020830185610bd6565b610ebb6040830184610e7d565b949350505050565b7f4e487b7100000000000000000000000000000000000000000000000000000000600052601160045260246000fd5b6000610efd82610ad3565b91507fffffffffffffffffffffffffffffffffffffffffffffffffffffffffffffffff8203610f2f57610f2e610ec3565b5b600182019050919050565b7f456e657267696120636f6e73756d696461206d61696f7220717565206120696e60008201527f6a65746164610000000000000000000000000000000000000000000000000000602082015250565b6000610f96602683610d3c565b9150610fa182610f3a565b604082019050919050565b60006020820190508181036000830152610fc581610f89565b9050919050565b600061ffff82169050919050565b6000610fe582610fcc565b9150610ff083610fcc565b9250828203905061ffff81111561100a57611009610ec3565b5b9291505056fea26469706673582212201aa271c9b44008583f001a49ece7aa1b168c3c7b142e8616d3fe6e42de6e839c64736f6c63430008110033",
  "immutableReferences": {},
  "source": "// SPDX-License-Identifier: GPL-3.0\r\n\r\npragma solidity ^0.8.3;\r\n\r\nimport \"@openzeppelin/contracts/token/ERC20/IERC20.sol\";\r\n//import \"./RenewableEnergyToken.sol\";\r\n\r\ncontract EnergyTrade{\r\n\r\n    IERC20 private _token;\r\n\r\n    event DoneStuff(address from);  \r\n\r\n    constructor(IERC20 token){\r\n        owner = msg.sender;\r\n        _token = token;\r\n    }\r\n\r\n    function doStuff() external {\r\n        address from = msg.sender;\r\n\r\n        _token.transferFrom(from, address(this), 1000);\r\n\r\n        emit DoneStuff(from);\r\n    }\r\n\r\n    struct Prosumer{\r\n        uint16 uc;               //Unidade consumidora\r\n        uint16 energiaConsumida; //Energia consumida em Kwh\r\n        uint16 energiaInjetada;  //Energia injetada em Kwh\r\n    }\r\n\r\n    address public owner;\r\n    address[] public prosumer;\r\n    uint256 public prosumerCount;\r\n    mapping(address => Prosumer) addressToProsumer;\r\n\r\n    //So trechos de cdigos que sero executados antes das funes.\r\n    //Uma das aplicaes mais conhecidas  a de controle de acesso \r\n    //para que somente endereos especficos possam executar uma funo\r\n    modifier isOwner() {\r\n        require(msg.sender == owner , \"Remetente invalido!\");\r\n        _;\r\n    }\r\n\r\n    function setProsumer(address endereco, uint8 unidadeConsumidora, uint8 consumida, uint8 injetada) public isOwner{\r\n\r\n        if(addressToProsumer[endereco].uc != unidadeConsumidora){\r\n            Prosumer memory newprosumer = Prosumer({\r\n                uc : unidadeConsumidora,\r\n                energiaConsumida : consumida,\r\n                energiaInjetada : injetada\r\n            }); \r\n\r\n        addressToProsumer[endereco] = newprosumer;\r\n        prosumer.push(endereco);\r\n        prosumerCount++;\r\n        } else {\r\n            addressToProsumer[endereco].uc = unidadeConsumidora;\r\n            addressToProsumer[endereco].energiaConsumida = consumida;\r\n            addressToProsumer[endereco].energiaInjetada = injetada;\r\n        }\r\n\r\n    }\r\n\r\n    function setAdmin(address endereco, uint256 value) public isOwner{\r\n        _token.approve(endereco, value);\r\n    }\r\n\r\n    function pagarProsumerOwner(address endereco) public isOwner{\r\n        require(addressToProsumer[endereco].energiaInjetada > addressToProsumer[endereco].energiaConsumida, \"Energia consumida maior que a injetada\");\r\n\r\n        uint256 value = addressToProsumer[endereco].energiaInjetada - addressToProsumer[endereco].energiaConsumida;\r\n\r\n        _token.transfer(endereco, value);\r\n    }\r\n\r\n    function info() public view returns(uint256){\r\n        return _token.totalSupply(); \r\n    }\r\n}\r\n\r\n",
  "sourcePath": "C:\\Users\\Cpides\\Documents\\Angular-dApp\\Blockchain\\contracts\\EnergyTrade.sol",
  "compiler": {
    "name": "solc",
    "version": "0.8.17+commit.8df45f5f.Emscripten.clang"
  },
  "schemaVersion": "3.4.10",
  "updatedAt": "2022-11-14T22:20:19.467Z",
  "devdoc": {
    "kind": "dev",
    "methods": {},
    "version": 1
  },
  "userdoc": {
    "kind": "user",
    "methods": {},
    "version": 1
  }
}