{
  "contractName": "EnergyTrade",
  "abi": [
    {
      "inputs": [],
      "name": "owner",
      "outputs": [
        {
          "internalType": "address",
          "name": "",
          "type": "address"
        }
      ],
      "stateMutability": "view",
      "type": "function",
      "constant": true
    },
    {
      "inputs": [
        {
          "internalType": "uint256",
          "name": "",
          "type": "uint256"
        }
      ],
      "name": "prosumer",
      "outputs": [
        {
          "internalType": "address",
          "name": "",
          "type": "address"
        }
      ],
      "stateMutability": "view",
      "type": "function",
      "constant": true
    },
    {
      "inputs": [],
      "name": "prosumerCount",
      "outputs": [
        {
          "internalType": "uint256",
          "name": "",
          "type": "uint256"
        }
      ],
      "stateMutability": "view",
      "type": "function",
      "constant": true
    },
    {
      "inputs": [
        {
          "internalType": "address",
          "name": "endereco",
          "type": "address"
        },
        {
          "internalType": "uint8",
          "name": "unidadeConsumidora",
          "type": "uint8"
        },
        {
          "internalType": "uint8",
          "name": "consumida",
          "type": "uint8"
        },
        {
          "internalType": "uint8",
          "name": "injetada",
          "type": "uint8"
        }
      ],
      "name": "setProsumer",
      "outputs": [],
      "stateMutability": "nonpayable",
      "type": "function"
    },
    {
      "inputs": [
        {
          "internalType": "address",
          "name": "endereco",
          "type": "address"
        },
        {
          "internalType": "uint256",
          "name": "value",
          "type": "uint256"
        }
      ],
      "name": "setAdmin",
      "outputs": [],
      "stateMutability": "nonpayable",
      "type": "function"
    },
    {
      "inputs": [
        {
          "internalType": "address",
          "name": "endereco",
          "type": "address"
        }
      ],
      "name": "pagarProsumerOwner",
      "outputs": [],
      "stateMutability": "nonpayable",
      "type": "function"
    },
    {
      "inputs": [],
      "name": "info",
      "outputs": [
        {
          "internalType": "uint256",
          "name": "",
          "type": "uint256"
        }
      ],
      "stateMutability": "view",
      "type": "function",
      "constant": true
    }
  ],
  "bytecode": "0x608060405234801561001057600080fd5b50610ed3806100206000396000f3fe608060405234801561001057600080fd5b506004361061007d5760003560e01c80638da5cb5b1161005b5780638da5cb5b146100da5780639ef9424a146100f8578063d991ea5e14610114578063e71a0933146101305761007d565b806319c155b314610082578063370158ea146100a05780634ff6428b146100be575b600080fd5b61008a610160565b60405161009791906109f5565b60405180910390f35b6100a8610166565b6040516100b591906109f5565b60405180910390f35b6100d860048036038101906100d39190610a9f565b6101fd565b005b6100e2610330565b6040516100ef9190610aee565b60405180910390f35b610112600480360381019061010d9190610b42565b610356565b005b61012e60048036038101906101299190610ba9565b6106cc565b005b61014a60048036038101906101459190610bd6565b61099d565b6040516101579190610aee565b60405180910390f35b60035481565b60008060009054906101000a900473ffffffffffffffffffffffffffffffffffffffff1673ffffffffffffffffffffffffffffffffffffffff166318160ddd6040518163ffffffff1660e01b8152600401602060405180830381865afa1580156101d4573d6000803e3d6000fd5b505050506040513d601f19601f820116820180604052508101906101f89190610c18565b905090565b600160009054906101000a900473ffffffffffffffffffffffffffffffffffffffff1673ffffffffffffffffffffffffffffffffffffffff163373ffffffffffffffffffffffffffffffffffffffff161461028d576040517f08c379a000000000000000000000000000000000000000000000000000000000815260040161028490610ca2565b60405180910390fd5b60008054906101000a900473ffffffffffffffffffffffffffffffffffffffff1673ffffffffffffffffffffffffffffffffffffffff1663095ea7b383836040518363ffffffff1660e01b81526004016102e8929190610cc2565b6020604051808303816000875af1158015610307573d6000803e3d6000fd5b505050506040513d601f19601f8201168201806040525081019061032b9190610d23565b505050565b600160009054906101000a900473ffffffffffffffffffffffffffffffffffffffff1681565b600160009054906101000a900473ffffffffffffffffffffffffffffffffffffffff1673ffffffffffffffffffffffffffffffffffffffff163373ffffffffffffffffffffffffffffffffffffffff16146103e6576040517f08c379a00000000000000000000000000000000000000000000000000000000081526004016103dd90610ca2565b60405180910390fd5b8260ff16600460008673ffffffffffffffffffffffffffffffffffffffff1673ffffffffffffffffffffffffffffffffffffffff16815260200190815260200160002060000160009054906101000a900461ffff1661ffff16146105a557600060405180606001604052808560ff1661ffff1681526020018460ff1661ffff1681526020018360ff1661ffff16815250905080600460008773ffffffffffffffffffffffffffffffffffffffff1673ffffffffffffffffffffffffffffffffffffffff16815260200190815260200160002060008201518160000160006101000a81548161ffff021916908361ffff16021790555060208201518160000160026101000a81548161ffff021916908361ffff16021790555060408201518160000160046101000a81548161ffff021916908361ffff1602179055509050506002859080600181540180825580915050600190039060005260206000200160009091909190916101000a81548173ffffffffffffffffffffffffffffffffffffffff021916908373ffffffffffffffffffffffffffffffffffffffff1602179055506003600081548092919061059a90610d7f565b9190505550506106c6565b8260ff16600460008673ffffffffffffffffffffffffffffffffffffffff1673ffffffffffffffffffffffffffffffffffffffff16815260200190815260200160002060000160006101000a81548161ffff021916908361ffff1602179055508160ff16600460008673ffffffffffffffffffffffffffffffffffffffff1673ffffffffffffffffffffffffffffffffffffffff16815260200190815260200160002060000160026101000a81548161ffff021916908361ffff1602179055508060ff16600460008673ffffffffffffffffffffffffffffffffffffffff1673ffffffffffffffffffffffffffffffffffffffff16815260200190815260200160002060000160046101000a81548161ffff021916908361ffff1602179055505b50505050565b600160009054906101000a900473ffffffffffffffffffffffffffffffffffffffff1673ffffffffffffffffffffffffffffffffffffffff163373ffffffffffffffffffffffffffffffffffffffff161461075c576040517f08c379a000000000000000000000000000000000000000000000000000000000815260040161075390610ca2565b60405180910390fd5b600460008273ffffffffffffffffffffffffffffffffffffffff1673ffffffffffffffffffffffffffffffffffffffff16815260200190815260200160002060000160029054906101000a900461ffff1661ffff16600460008373ffffffffffffffffffffffffffffffffffffffff1673ffffffffffffffffffffffffffffffffffffffff16815260200190815260200160002060000160049054906101000a900461ffff1661ffff1611610846576040517f08c379a000000000000000000000000000000000000000000000000000000000815260040161083d90610e39565b60405180910390fd5b6000600460008373ffffffffffffffffffffffffffffffffffffffff1673ffffffffffffffffffffffffffffffffffffffff16815260200190815260200160002060000160029054906101000a900461ffff16600460008473ffffffffffffffffffffffffffffffffffffffff1673ffffffffffffffffffffffffffffffffffffffff16815260200190815260200160002060000160049054906101000a900461ffff166108f49190610e67565b61ffff16905060008054906101000a900473ffffffffffffffffffffffffffffffffffffffff1673ffffffffffffffffffffffffffffffffffffffff1663a9059cbb83836040518363ffffffff1660e01b8152600401610955929190610cc2565b6020604051808303816000875af1158015610974573d6000803e3d6000fd5b505050506040513d601f19601f820116820180604052508101906109989190610d23565b505050565b600281815481106109ad57600080fd5b906000526020600020016000915054906101000a900473ffffffffffffffffffffffffffffffffffffffff1681565b6000819050919050565b6109ef816109dc565b82525050565b6000602082019050610a0a60008301846109e6565b92915050565b600080fd5b600073ffffffffffffffffffffffffffffffffffffffff82169050919050565b6000610a4082610a15565b9050919050565b610a5081610a35565b8114610a5b57600080fd5b50565b600081359050610a6d81610a47565b92915050565b610a7c816109dc565b8114610a8757600080fd5b50565b600081359050610a9981610a73565b92915050565b60008060408385031215610ab657610ab5610a10565b5b6000610ac485828601610a5e565b9250506020610ad585828601610a8a565b9150509250929050565b610ae881610a35565b82525050565b6000602082019050610b036000830184610adf565b92915050565b600060ff82169050919050565b610b1f81610b09565b8114610b2a57600080fd5b50565b600081359050610b3c81610b16565b92915050565b60008060008060808587031215610b5c57610b5b610a10565b5b6000610b6a87828801610a5e565b9450506020610b7b87828801610b2d565b9350506040610b8c87828801610b2d565b9250506060610b9d87828801610b2d565b91505092959194509250565b600060208284031215610bbf57610bbe610a10565b5b6000610bcd84828501610a5e565b91505092915050565b600060208284031215610bec57610beb610a10565b5b6000610bfa84828501610a8a565b91505092915050565b600081519050610c1281610a73565b92915050565b600060208284031215610c2e57610c2d610a10565b5b6000610c3c84828501610c03565b91505092915050565b600082825260208201905092915050565b7f52656d6574656e746520696e76616c69646f2100000000000000000000000000600082015250565b6000610c8c601383610c45565b9150610c9782610c56565b602082019050919050565b60006020820190508181036000830152610cbb81610c7f565b9050919050565b6000604082019050610cd76000830185610adf565b610ce460208301846109e6565b9392505050565b60008115159050919050565b610d0081610ceb565b8114610d0b57600080fd5b50565b600081519050610d1d81610cf7565b92915050565b600060208284031215610d3957610d38610a10565b5b6000610d4784828501610d0e565b91505092915050565b7f4e487b7100000000000000000000000000000000000000000000000000000000600052601160045260246000fd5b6000610d8a826109dc565b91507fffffffffffffffffffffffffffffffffffffffffffffffffffffffffffffffff8203610dbc57610dbb610d50565b5b600182019050919050565b7f456e657267696120636f6e73756d696461206d61696f7220717565206120696e60008201527f6a65746164610000000000000000000000000000000000000000000000000000602082015250565b6000610e23602683610c45565b9150610e2e82610dc7565b604082019050919050565b60006020820190508181036000830152610e5281610e16565b9050919050565b600061ffff82169050919050565b6000610e7282610e59565b9150610e7d83610e59565b9250828203905061ffff811115610e9757610e96610d50565b5b9291505056fea26469706673582212202598077fe8a74e88b7c58f1dbc680ee79c255ed20ce4ecb3bab1387c83da161464736f6c63430008110033",
  "immutableReferences": {},
  "source": "// SPDX-License-Identifier: GPL-3.0\r\n\r\npragma solidity ^0.8.3;\r\n\r\nimport \"@openzeppelin/contracts/token/ERC20/IERC20.sol\";\r\n//import \"./RenewableEnergyToken.sol\";\r\n\r\ncontract EnergyTrade{\r\n\r\n    IERC20 private _token;\r\n\r\n    struct Prosumer{\r\n        uint16 uc;               //Unidade consumidora\r\n        uint16 energiaConsumida; //Energia consumida em Kwh\r\n        uint16 energiaInjetada;  //Energia injetada em Kwh\r\n    }\r\n\r\n    address public owner;\r\n    address[] public prosumer;\r\n    uint256 public prosumerCount;\r\n    mapping(address => Prosumer) addressToProsumer;\r\n\r\n    //So trechos de cdigos que sero executados antes das funes.\r\n    //Uma das aplicaes mais conhecidas  a de controle de acesso \r\n    //para que somente endereos especficos possam executar uma funo\r\n    modifier isOwner() {\r\n        require(msg.sender == owner , \"Remetente invalido!\");\r\n        _;\r\n    }\r\n\r\n    function setProsumer(address endereco, uint8 unidadeConsumidora, uint8 consumida, uint8 injetada) public isOwner{\r\n\r\n        if(addressToProsumer[endereco].uc != unidadeConsumidora){\r\n            Prosumer memory newprosumer = Prosumer({\r\n                uc : unidadeConsumidora,\r\n                energiaConsumida : consumida,\r\n                energiaInjetada : injetada\r\n            }); \r\n\r\n        addressToProsumer[endereco] = newprosumer;\r\n        prosumer.push(endereco);\r\n        prosumerCount++;\r\n        } else {\r\n            addressToProsumer[endereco].uc = unidadeConsumidora;\r\n            addressToProsumer[endereco].energiaConsumida = consumida;\r\n            addressToProsumer[endereco].energiaInjetada = injetada;\r\n        }\r\n\r\n    }\r\n\r\n    function setAdmin(address endereco, uint256 value) public isOwner{\r\n        _token.approve(endereco, value);\r\n    }\r\n\r\n    function pagarProsumerOwner(address endereco) public isOwner{\r\n        require(addressToProsumer[endereco].energiaInjetada > addressToProsumer[endereco].energiaConsumida, \"Energia consumida maior que a injetada\");\r\n\r\n        uint256 value = addressToProsumer[endereco].energiaInjetada - addressToProsumer[endereco].energiaConsumida;\r\n\r\n        _token.transfer(endereco, value);\r\n    }\r\n\r\n    function info() public view returns(uint256){\r\n        return _token.totalSupply(); \r\n    }\r\n}\r\n\r\n",
  "sourcePath": "C:\\Users\\Cpides\\Documents\\Angular-dApp\\Blockchain\\contracts\\EnergyTrade.sol",
  "compiler": {
    "name": "solc",
    "version": "0.8.17+commit.8df45f5f.Emscripten.clang"
  },
  "schemaVersion": "3.4.10",
  "updatedAt": "2022-12-05T23:06:48.663Z",
  "networkType": "ethereum",
  "devdoc": {
    "kind": "dev",
    "methods": {},
    "version": 1
  },
  "userdoc": {
    "kind": "user",
    "methods": {},
    "version": 1
  }
}